:0E0000000C948A000C94EA000C9400000C94FE
:10000E0000000C9400000C9400000C9400000C9462
:10001E0000000C9400000C9400000C9400000C9452
:10002E0000000C9400000C9400000C9400000C9442
:10003E0000000C94C4000C9400000C9400000C946E
:10004E0000000C94000080A0C0E01027E8036400BC
:10005E000A000100001000011000010057656C63DA
:10006E006F6D652E005374617274696E67205379DB
:10007E007374656D2E00526563656976696E6700EF
:10008E0053656E642073656E736F72732064617452
:10009E006100436C656172206F75747075740053E6
:1000AE006574206F75747075740050756C6C206F6C
:1000BE00757470757400496E76616C696420726532
:1000CE00710001002D4E414E00494E4600000900C0
:1000DE0060026A001100690273000A007A0284004D
:1000EE00120084028E000D009602A0000B00A302E7
:1000FE00AD000C00AE02B8000C00BA02C400010044
:10010E00DB02D0000000F894EE27ECBBF1E0F5BF67
:10011E00E5BFF8E1F1BDE1BD8DE0A2E0BB27ED93B7
:10012E008A95E9F780E098E0A0E6ED930197E9F76C
:10013E00ECEDF0E085919591009761F0A591B59168
:10014E0005901590BF01F00105900D920197E1F712
:10015E00FB01F0CFEFE5EDBFE8E0EEBFC0E6D2E089
:10016E000C942B015F9BFECFECB10895AA935D9B7F
:10017E00FECFE881ECB90C9487028A93AA93BA93C6
:10018E00EA93EFB7EA93A091DA02B0E0AA53BD4F1B
:10019E00E5B1EC93A091DA02AF5FA093DA02A8303A
:1001AE0018F0E0E0E093DA02E091DA02E05EE7B9FF
:1001BE0088E28A95F1F7369AE991EFBFE991B99104
:1001CE00A99189911895EA93FA93EAE0F0E04F012C
:1001DE00F991E9911895E091CE02E03011F4A898CA
:1001EE0001C0A89AE091CF02E03011F4A99801C0A5
:1001FE00A99AE091D002E03011F4AA9801C0AA9A0F
:10020E00E091D102E03011F4AB9801C0AB9AE091CD
:10021E00D202E03011F4AC9801C0AC9AE091D30256
:10022E00E03011F4AD9801C0AD9AE091D402E03007
:10023E0011F4AE9801C0AE9AE091D502E03011F4FF
:10024E00AF9801C0AF9A089566247724EAE0F0E0F3
:10025E004F0100E010E00C30E0E01E074CF4AEEC75
:10026E00B2E0A00FB11FE0E0EC930F5F1F4FF3CF92
:10027E00E0E0EBBBEABBE8BBEFEFE7BBE0E0E5BBE2
:10028E00EFEFE4BBE4E0E2BBE8EFE1BBE0E0E3BFAD
:10029E00E2BFECBFEFBDEEBDEDBDECBDE7BDE6BD13
:1002AE00EBBDEABDE9BDE8BDE2BDE5BDE4BDE3BD24
:1002BE00EBB7E064EBBFE0E0E5BFE4BFE0E4EABF2C
:1002CE00E0E0E9BFEBB9E0BDE7E6E9B9E8E1EAB99C
:1002DE00E6E8E0BDE0E8E8B9E0E0E0BFE0E2E7B97B
:1002EE00ECECE6B9369AE0E0EDB9E6BFA0E10E948B
:1002FE006102A0E6B2E00E9489027894979A0E9469
:10030E002F02A9E6B2E00E9489020E942F02AAE7FC
:10031E00B2E00E94500226DF5E2EE0E09799E1E007
:10032E00A1E00E94B302EA1B11F4979801C0979ABC
:10033E00E0E35E1618F0E7E3E51508F410C00E943E
:10034E002F02A4E8B2E00E945002F8940E948F029D
:10035E00F097EA53FD4FA08109DF789449C0E1E69A
:10036E005E1618F0E8E6E51508F40DC071D0A6E9A2
:10037E00B2E00E949602E156F040E253FD4FA0E03B
:10038E00A083A1E334C0E1E45E1618F0E8E4E515BD
:10039E0008F40DC05DD0A3EAB2E00E949602E154CB
:1003AE00F040E253FD4FA1E0A083A0E320C0E1E2C4
:1003BE005E1618F0E9E2E51508F414C049D0AEEA6D
:1003CE00B2E067D0F8940E948F02B197E253FD4FCE
:1003DE00A081A03011F4E6E601C0E9E9AE2FC6DE39
:1003EE00789406C035D0AAEBB2E053D0AFE3BEDEB0
:1003FE00F2DE8BCFFFCFAA93E8B3EF70AE2FE8817A
:10040E00E07FEA2BE8BB88E08A95F1F7C29A84E197
:10041E008A95F1F7C29884E18A95F1F771C0AA9393
:10042E00A881E9DFE881E295E883A881E4DF88EC22
:10043E008A95F1F765C0AA93E881F0E0EC5AFF4F78
:10044E00E491A981AE0FEBDF4980B8802296089522
:10045E00A2E00E949B02ACE0E2DFA1E00E949B02C0
:10046E00E0E0BE2E4E2E0895AA93A881AA3011F078
:10047E004A1448F0E0E0EA93B394AB2DDCDFA88198
:10048E00AA3009F43DC04394C09AA881C8DFC09831
:10049E0037C0BA93AA931A93A981BA81ED91A98311
:1004AE00BA831E2FE03019F0A12FDEDFF5CF1881B1
:1004BE0023960895AA93E7B3E06FE7BBBA9AB89A6A
:1004CE00B99AC298C098C198A880A4E1B0E00E94E1
:1004DE00A9020E94A1020E94A1020E94A102A0E212
:1004EE008ADF8CE291E00197F1F7A4E298DFA9E0B0
:1004FE0096DFA0E294DFACE092DFA6E090DFA8DF0B
:10050E00219608950E945002A4EFB1E00C94A90226
:10051E00A4E1B0E00E94A902E52DF0E008950E944A
:10052E005002E52DF0E008950E941602A3E0B0E01F
:10053E000C94A902A0E30E9402028CE291E00197C2
:10054E00F1F70895109639F088EB9BE00197F1F7DB
:10055E00A8951197C9F708951A2EAE2FE12D08957B
:00000001FF
